:020000041000EA
:1000000000B5324B212058609868022188439860DF
:10001000D860186158612E4B002199600221596106
:100020000121F02299502B49196001219960352056
:1000300000F044F80222904214D00621196600F024
:1000400034F8196E01211966002018661A6600F04E
:100050002CF8196E196E196E052000F02FF8012189
:100060000842F9D1002199601B49196000215960AB
:100070001A491B48016001219960EB211966A021F2
:10008000196600F012F800219960164914480160C1
:100090000121996001BC002800D000471248134993
:1000A000086003C880F30888084703B5996A0420EC
:1000B0000142FBD001200142F8D103BD02B5186610
:1000C0001866FFF7F2FF186E186E02BD00000240BE
:1000D000000000180000070000035F00212200005C
:1000E000F4000018222000A00001001008ED00E03C
:1000F00000000000000000000000000074B24E7A12
:1001000000200420F7010010C3010010C5010010F9
:10011000C1010010C1010010C1010010C101001097
:10012000C1010010C1010010C1010010C701001081
:10013000C1010010C1010010C9010010CB01001065
:10014000CD010010CD010010CD010010CD01001037
:10015000CD010010CD010010CD010010CD01001027
:10016000CD010010CD010010CD010010CD01001017
:10017000CD010010CD010010CD010010CD01001007
:10018000CD010010CD010010CD010010CD010010F7
:10019000CD010010CD010010CD010010CD010010E7
:1001A000CD010010CD010010CD010010CD010010D7
:1001B000CD010010CD010010CD010010CD010010C7
:1001C00000BE00BE00BE00BE00BE00BE00F04BF888
:1001D000103800BEF2EB887110A0011034A001109D
:1001E0003402001090A31AE700202149086006C8D5
:1001F00081F3088810471F48006800282FD10DA4FC
:100200000ECC002902D000F012F8F9E71A491B4A77
:10021000002000E001C19142FCD1194988471949E9
:1002200088471949884700BEFDE701C901C29A42C3
:10023000FBD3704734A00110C0000020541B0020E5
:10024000C8BA01100000042000000420C8BA011040
:1002500000100420001004200000000070470B482C
:100260000BF032FD0047EFF30580C0B2704700008D
:1002700008ED00E0000000D0581B00207873032038
:10028000CD900010890D00106592001057560000A7
:1002900005005250DE65F468C8BA011006005250DD
:1002A0005422A29D5888011006005250861C030259
:1002B0006488011006005250ABB36053708801107F
:1002C000F8B5C04610B5064C2378002B07D1054B76
:1002D000002B02D0044800E000BF0123237010BDB2
:1002E000981C002000000000E86D0110044B10B5C0
:1002F000002B03D00349044800E000BF10BDC046F6
:10030000000000009C1C0020E86D011080B500AFCB
:10031000024B9B6A1800BD4680BDC04600400540A8
:1003200080B582B000AF7860D0231B065A687B6826
:10033000DA401300012213405A1E9341DBB2180029
:10034000BD4602B080BD80B500AFD0231B065B6800
:100350001800BD4680BD80B582B000AF7860D02364
:100360001B067A685A61C046BD4602B080BD80B5A2
:1003700082B000AF7860D0231B067A689A61C046CD
:10038000BD4602B080BD80B582B000AF78603960F4
:10039000D0231B061A693B685A40D0231B06796894
:1003A0000A40DA61C046BD4602B080BD80B584B067
:1003B00000AF78600A00FB1C1A7001227B689A402B
:1003C0001300FB60FB1C1B78002B04D0FB6818009B
:1003D000FFF7C1FF03E0FB681800FFF7C8FFC04646
:1003E000BD4604B080BD80B582B000AF7860D02338
:1003F0001B067A685A62C046BD4602B080BD80B511
:1004000082B000AF7860D0231B067A689A62C0463B
:10041000BD4602B080BD80B584B000AF78600A00F0
:10042000FB1C1A7001227B689A401300FB60FB1CC6
:100430001B78002B04D0FB681800FFF7D4FF03E003
:10044000FB681800FFF7DBFFC046BD4604B080BD67
:1004500080B582B000AF7860C046BD4602B080BDB6
:1004600080B582B000AF7860C046BD4602B080BDA6
:1004700080B584B000AFF860B9607A60FB68DB6873
:10048000064A1A40BB681A437B681B051A43FB687F
:10049000DA60C046BD4604B080BDC046E0FF0FFC38
:1004A00080B584B000AFF860B9607A60FB68DB6843
:1004B000064A1A40BB685B011A437B689B061A43D5
:1004C000FB68DA60C046BD4604B080BD1FFCFFE398
:1004D00080B582B000AF786039607B68DB68054A20
:1004E0001A403B68DB031A437B68DA60C046BD46AE
:1004F00002B080BDFF7FF0FF80B582B000AF7860B2
:1005000039607B68DB68054A1A403B689B021A43E6
:100510007B68DA60C046BD4602B080BDFF83FFFF46
:1005200080B584B000AFF860B9601900FB1D1A7087
:10053000BB1D0A1C1A70FB68DB68DB00DA08BB68AD
:100540005B071A43FB68DA60FB685B680C4A1A4079
:10055000FB1D1B78002B02D08023DB0500E000236D
:100560001A43BB1D1B78002B02D080239B0500E0A3
:1005700000231A43FB685A60C046BD4604B080BDE4
:10058000FFFFFF9F80B582B000AF786008001100C8
:10059000BB1C021C1A807B1C0A1C1A707B1C1B785B
:1005A0001A02BB1C1B881B041A437B681A60C046D6
:1005B000BD4602B080BD000080B584B000AFF860D9
:1005C000B9607A60FB685B68064A1A40BB68DB0169
:1005D0001A437B681B031A43FB685A60C046BD463A
:1005E00004B080BD7F00FEFF90B585B000AFF8601D
:1005F000080011007B600B243B19021C1A700A23AF
:10060000FB180A1C1A70FB689B68104A1A403B19B9
:100610001B78002B02D08023DB0200E000231A436A
:100620000A23FB181B78002B02D080235B0200E01A
:1006300000231A437B681905F8235B040B401A4317
:10064000FB689A60C046BD4605B090BDFFFF0AFE3C
:1006500090B585B000AFF860080011007B600B24F6
:100660003B19021C1A700A23FB180A1C1A70FB683B
:100670009B68104A1A403B191B78002B02D080233C
:100680001B0300E000231A430A23FB181B78002BEE
:1006900002D080239B0200E000231A437B685906A6
:1006A000F8239B050B401A43FB689A60C046BD4681
:1006B00005B090BDFFFFF5C190B587B000AF786081
:1006C00008243B19180010231A0000210CF0E0FA4E
:1006D0003B19002201211800FFF754FF3B191F228C
:1006E00000211800FFF768FF38192023002201219C
:1006F000FFF77AFF3819202300220121FFF7A8FF16
:100700007B683A1913CA13C312681A607868BD4629
:1007100007B090BD80B582B000AF786039607B686B
:100720001800FFF79DFE7B68074A934201D106231C
:1007300000E007233A681900100006F097F9C04658
:10074000BD4602B080BDC0460000205080B584B0D8
:1007500000AFF860B960FB1D1A70FB681800FFF766
:100760007FFEBB681800FFF773FEFB681B68012162
:10077000BA6891400A00D2431A40FB1D1B78190049
:10078000BB6899400B001A43FB681A60C046BD461F
:1007900004B080BD80B586B000AF7860080011005D
:1007A000FB1C021C1A70BB1C0A1C1A707B68180008
:1007B000FFF756FEBB1C1B78002B11D07B682D3336
:1007C000FF331A00FB1C1B78012199400B007A6152
:1007D0003B617B698022920113433A691A6011E000
:1007E0007B682D33FF331A00FB1C1B7801219940D5
:1007F0000B00FA60BB60FB68C02292011343BA6829
:100800001A60C046C046BD4606B080BD80B584B003
:1008100000AF786039607B681800FFF721FE7B68C5
:1008200030331A0001213B6899400B00FA60BB602D
:10083000FB68802292011343BA681A60C046C04622
:10084000BD4604B080BD80B584B000AFF860B9602B
:100850007A60FB681800FFF703FEBB681800FFF71B
:10086000F7FDF968BA68D82013005B009B18DB001D
:10087000CB181B187A681A60C046BD4604B080BD0C
:1008800080B584B000AFF860B9607A60FB6818008A
:10089000FFF7E6FDBB681800FFF7DAFDFB68BA68F2
:1008A000043292007968D150C046BD4604B080BD84
:1008B00080B582B000AF78607B681F221A40044B7D
:1008C000012191400A001A60C046BD4602B080BDB9
:1008D00080E200E090B587B000AF7860396008240E
:1008E0003B191800FFF7E8FE3B681E331A00396811
:1008F0003B191800FFF760FE38190023012202217E
:10090000FFF70EFE7B683A1913CA13C312681A6008
:100910007868BD4607B090BD90B58DB002AFF86164
:10092000B9617A613B613C6C3B007A691100180047
:10093000FFF7D0FF3A00230013CA13C312681A60EE
:10094000BA6B3B6C11001800FFF7C2FD39693B6CB4
:1009500001221800FFF78CFD39693B6C0122180059
:10096000FFF79EFDFA6B3B6C11001800FFF7C4FD0A
:10097000BA6BB969F8690023009305230DF056FAA4
:100980003A69B969F8690123009301230DF04EFA21
:100990003A69FB6911001800FFF7BCFEFA6BFB69AE
:1009A00011001800FFF7B6FEBA6BFB6911001800C2
:1009B000FFF7B0FE01223B699A400121FB6B994091
:1009C0000B0013437B627B6A7A6AB969F8690DF0A0
:1009D0007FF97B6A7A6AB969F8690DF0D0F93B6CE6
:1009E0007A69B969F8690DF095FAC046BD460BB051
:1009F00090BD000080B582B000AF0200FB1D1A70F0
:100A00000E4BDB6C082B0DDC0C4BDB6C0C4AD35C07
:100A1000FA1D12789A4205D1084BDB6C5A1C074B21
:100A2000DA6406E0054B0022DA64044B00221A6502
:100A3000C046C046BD4602B080BDC04680200020F2
:100A4000100D002080B500AF0F4B18680F4B1B68CE
:100A50000F4A1900FFF714FF0B4B18680B4B19686E
:100A60000C4B1B680C4A944663441A00FFF7EBFEDC
:100A7000054B1868054B1B68084A1900FFF7E3FE91
:100A8000C046BD4680BDC046082803201C28032060
:100A900081018EFF0428032020E00000A1A00000B7
:100AA00080B500AF474B180006F067F80C2006F041
:100AB00049F800210C20FFF7AEFC002201210C2098
:100AC00006F006F81B2006F03DF800211B20FFF77A
:100AD000A2FC1C2006F036F800211C20FFF79BFC2E
:100AE0000F2006F02FF800210F20FFF794FC1020B4
:100AF00006F028F800211020FFF78DFC112006F0E9
:100B000021F800211120FFF786FC122006F01AF8C8
:100B100000211220FFF77FFC132006F013F80021BC
:100B20001320FFF778FC142006F00CF800211420A5
:100B3000FFF771FC152006F005F800211520FFF7DE
:100B40006AFC162005F0FEFF00211620FFF763FC6B
:100B50000D2005F0F7FF01210D20FFF75CFC0021BF
:100B60000D20FFF723FC002005F0ECFF0121002001
:100B7000FFF751FC00210020FFF718FC012005F0D1
:100B8000E1FF01210120FFF746FC00210120FFF7D2
:100B90000DFC062005F0D6FF01210620FFF73BFCE7
:100BA00001210620FFF702FC0E2005F0CBFF0121FA
:100BB0000E20FFF730FC01210E20FFF7F7FBC046A7
:100BC000BD4680BD809F7F1C80B582B000AFFFF71F
:100BD0009DFB0200624B1A60614B1A68614B1B68F7
:100BE0009A4206D35E4B1A685E4B1B68D31A7B6031
:100BF00005E05B4B1A685B4B1B68D31A7B60584B54
:100C00001A68584B1A60584B1B6A002B0FD0564B72
:100C10001B6A7A681100180004F0B2F80200524B07
:100C20001A62514B1B6A002B01D101F0F9FA4E4BAD
:100C30009B6A002B35D000210020FFF7B7FB4B4B00
:100C400001221A70484B9B6A7A681100180004F060
:100C500097F80200444B9A62434B5B6A7A68110032
:100C6000180004F0A2F802003F4B5A623E4B5A6A49
:100C70003F4B1B689A4206D33B4B5A6A3C4B1B685E
:100C8000D21A394B5A62384B5A6A3A4B1B689A420D
:100C900003D2354B01225A710EE0334B00225A71B8
:100CA0000AE001210020FFF781FB304B1B78002B6D
:100CB00002D02E4B00221A700C20FFF731FB0300EC
:100CC0001A0001235340DBB2002B18D02A4B1B78AB
:100CD000002B1AD0244BDB6A7A681100180004F04C
:100CE00064F80200204BDA621F4BDA6A234B1B6860
:100CF0009A420AD31C4B30220121995405E01A4B29
:100D00000022DA621C4B01221A70174BDB6B002B9E
:100D100009D0154BDB6B7A681100180004F030F82D
:100D20000200114BDA6303F085FC031E10D0144B54
:100D30001A68144B1B689A420DD2114B1B687A68D3
:100D40001100180004F031F802000D4B1A6002E0A7
:100D50000B4B00221A60C046BD4602B080BDC046A3
:100D600000280320F8270320802000206A73032036
:100D700014AC022004AC02206973032010AC0220E2
:100D80001CAC022018AC022080B584B004AF0CF07B
:100D900078FA404B05221A603E4B3F4A5A603F4B5F
:100DA00000221A703E4B00221A70FFF7AFFA0200C1
:100DB0003C4B1A603B4B1A683B4B1A60FFF770FEC6
:100DC00001210020FFF7F2FA00210020FFF7EEFAE0
:100DD00004F0A2FA354B364A1A60344B1B680121E5
:100DE00018000CF015FE03001A00324B1A602F4B4E
:100DF0001B68314A110018000CF040FF02002F4B15
:100E00001A602A4B18682B4B19682C4B1A682C4B0C
:100E100002930E230193072300930623FFF77CFD23
:100E2000224B1868234B1B6801221900FFF78EFC28
:100E3000244B1900072008F03FFD0121072008F08E
:100E4000C5FC1A4B1B68012208211800FFF7A2FC01
:100E5000164B1868174B1B681B4A1900FFF710FD4B
:100E600003F060FD04F0C6FA01F052F904F092FCC0
:100E700000210620FFF79AFAFFF7A6FE03F0FEFA1C
:100E8000074B1B78002BF7D005F0DAFB044B002250
:100E90001A70F1E710E000E0FFFFFF006A73032023
:100EA0006873032000280320F82703200828032064
:100EB000000020501C280320286E01100428032065
:100EC0000C280320C100002081018EFF80B582B074
:100ED00000AF7860D0231B067A685A61C046BD46D1
:100EE00002B080BD80B582B000AF7860D0231B0611
:100EF0007A689A61C046BD4602B080BD80B584B0B4
:100F000000AF78600A00FB1C1A7001227B689A40CF
:100F10001300FB60FB1C1B78002B04D0FB6818003F
:100F2000FFF7D4FF03E0FB681800FFF7DBFFC046C4
:100F3000BD4604B080BD000080B500AFBFF34F8F49
:100F4000C046044B044ADA60BFF34F8FC046C04628
:100F5000FDE7C04600ED00E00400FA0580B582B070
:100F600000AF786039601F4A7B681100180015F0E7
:100F7000E3FC031E06D11C493B687E22180003F0E7
:100F8000EBFF2BE0194A7B681100180015F0D4FC28
:100F9000031E06D116493B687E22180003F0DCFFD1
:100FA0001CE0144A7B681100180015F0C5FC031EF4
:100FB00006D111493B687E22180003F0CDFF0DE0F9
:100FC0000E4A7B681100180015F0B6FC031E05D10F
:100FD0000B493B687E22180003F0BEFFC046BD46A9
:100FE00002B080BD386E011060A40220406E011076
:100FF00048A60220486E011030A80220506E011051
:1010000018AA022080B582B000AF78607B68012208
:10101000134001D0002313E07B680222134001D06B
:1010200001230DE07B680422134001D0022307E076
:101030007B680822134001D0032301E001235B42B7
:101040001800BD4602B080BD80B584B000AF02007C
:10105000FB1D1A70274B1B7D0F2B01D1022344E08F
:10106000FB1D1B781B09DBB20F2B3BD89A00224BD0
:10107000D3181B689F460F23FB1801221A7031E01A
:101080000F23FB1801221A702CE00F23FB180122FA
:101090001A7027E00F23FB1801221A7022E00F2399
:1010A000FB1801221A701DE00F23FB1802221A7090
:1010B00018E00F23FB1802221A7013E00F23FB180D
:1010C00003221A700EE00F23FB1804221A7009E0A5
:1010D0000F23FB1803221A7004E00F23FB180322CE
:1010E0001A70C0460F23FB181B781800BD4604B0C9
:1010F00080BDC04680200020446F011080B582B0C2
:1011000000AF724B1B7D1800FFF77CFF03003B60B4
:101110003B68002B0ADB6E493A6813001B019B1ADF
:101120009B009B18DB005B58002B01D12023C8E0FB
:10113000664B5B7C012B03D0644B5B7C042B5ED144
:10114000FB1D00221A70614B1B79002B05D0FB1D83
:10115000FA1D127801210A431A705C4B5B79002B4F
:1011600005D0FB1DFA1D127802210A431A70574B55
:101170005B78002B05D1FB1DFA1D127804210A4370
:101180001A70524BDB79002B05D0FB1DFA1D12782B
:1011900008210A431A704D4B1B7A002B05D0FB1D0A
:1011A000FA1D127810210A431A70FB1DFA1D1278DD
:1011B00020210A431A70454B9B7A002B0DD14449DC
:1011C0003A68842013001B019B1A9B009B18DB00CC
:1011D000CB181B181B68022B05D1FB1DFA1D1278BA
:1011E00040210A431A70394BDB7A002B67D0FB1D74
:1011F000FA1D1278802149420A431A705FE0334B8E
:101200005B7C022B03D0314B5B7C032B54D1FB1D49
:1012100000221A702D4B1B79002B05D0FB1DFA1DE7
:10122000127801210A431A70284B5B7B002B05D0F2
:10123000FB1DFA1D127802210A431A70234B9B7979
:10124000002B05D0FB1DFA1D127804210A431A70E9
:101250001E4BDB79002B05D0FB1DFA1D12780821EF
:101260000A431A70194B5B7A002B05D0FB1DFA1D3F
:10127000127810210A431A70144B1B7BF82B05D1EE
:10128000FB1DFA1D127820210A431A700F4B9B7A1E
:10129000002B05D0FB1DFA1D127840210A431A705D
:1012A0000A4BDB7A002B0AD0FB1DFA1D1278802135
:1012B00049420A431A7002E0FB1D00221A70FB1D0E
:1012C0001B781800BD4602B080BDC04680200020BB
:1012D0005CA4022090B587B000AFF860B9607A6076
:1012E0001249FA68A02013001B019B1A9B009B184F
:1012F000DB00CB181B181B781A007B685A43BB68AD
:10130000D1180A48FA689E2413001B019B1A9B00FF
:101310009B18DB00C3181B191B884B4310337B61E0
:101320007B691800BD4607B090BDC0465CA4022092
:1013300080B586B000AF78607B685B001A000D4B0B
:10134000D3187B617B6901331B789BB21B0299B276
:101350007B691B789AB212203B188A181A803B18B6
:101360001B889B049B0CFB60FB681800BD4606B005
:1013700080BDC0460431032080B588B000AFF8605E
:10138000B9607A600023FB6123E0FB691800FFF776
:10139000CFFF0300BB61BA69124BD3187B617B6935
:1013A00001331B781A00BB6893420FD17B6902336B
:1013B0001B781A00FB68934208D17B6903331B78C2
:1013C0001A007B68934201D1BB6907E0FB690133D6
:1013D000FB61FB697F2BD8DD01235B421800BD4612
:1013E00008B080BD0431032080B582B000AF7860C2
:1013F0007B681B78A12B01D000231FE07B680133A1
:101400007B607B681B78A12B01D0002316E07B68F2
:1014100001337B607B681B78A12B01D000230DE09A
:101420007B6801337B607B681B78FB2B03D07B6878
:101430001B78F82B01D1012300E000231800BD46E2
:1014400002B080BD80B584B000AF786039603B6881
:10145000FB603B68002B0FDA01235B4214E0FA6863
:101460000B4BD3181800FFF7BFFF031E01D0FB681A
:101470000AE0FB680133FB607B68064A9B58FA6808
:101480009A42ECDB01235B421800BD4604B080BDEC
:10149000043103202C08000080B584B000AF7860D0
:1014A0000023FB6026E07B6898687B68DB68FA684D
:1014B0001900FFF761FF01007A68FB6808339B00A1
:1014C000D318043319607A68FB6808339B00D3187B
:1014D00004331A687B6811001800FFF7B3FF01009E
:1014E0007A68FB6888339B00D31804331960FB6863
:1014F0000133FB60FB687F2BD5DDC046C046BD468F
:1015000004B080BD90B587B000AFF860B9607A6074
:101510003B4B01221A603A4B5B68FA689A4209D148
:10152000374B9B68BA689A4204D1354BDB687A68BE
:101530009A425ED0FB68002B5DDBFB68032B5ADC14
:101540003049FA6813001B019B1A9B009B18DB00B3
:101550005B58002B4FD07A68B968FB681800FFF71A
:10156000B9FE03007B612749FA6813001B019B1A2F
:101570009B009B18DB005B587A691100180004F08F
:101580000DF82049FA6813001B019B1A9B009B1859
:10159000DB0058581B49FA689E2413001B019B1A54
:1015A0009B009B18DB00CB181B191B881A00164BDD
:1015B000190003F0B7FF124BFA685A60104BBA6873
:1015C0009A600F4B7A68DA600E49FA689E20130021
:1015D0001B019B1A9B009B18DB00CB181B181B8858
:1015E0001900074B094A9950054B1800FFF754FFA3
:1015F00002E0C04600E0C046BD4607B090BDC04610
:10160000D42803205CA40220043103202C0800000D
:1016100090B589B004AFF860B9607A60294B0222B6
:101620001A60284B5B68FA689A4209D1254B9B687F
:10163000BA689A4204D1234BDB687A689A423BD05D
:10164000FB68002B3ADBFB68032B37DC1E49FA688A
:1016500013001B019B1A9B009B18DB005B58002B9F
:101660002CD01949FA6813001B019B1A9B009B1888
:10167000DB005858FA6813001B019B1A9B009B184B
:10168000DB0088331A00104BD3181C1DBA68796828
:101690008023DB0102930D4B01930A4B009323003F
:1016A00005F03AF8074BFA685A60064BBA689A6038
:1016B000044B7A68DA6002E0C04600E0C046BD46EE
:1016C00005B090BDD42803205CA40220043103207F
:1016D00080B584B000AFF860B9607A601149FA68EB
:1016E000842013001B019B1A9B009B18DB00CB1866
:1016F0001B181B68012B02D0022B07D00DE07A6863
:10170000B968FB681800FFF7FDFE06E07A68B96863
:10171000FB681800FFF77CFFC046C046BD4604B01A
:1017200080BDC0465CA4022080B584B000AF786064
:1017300039600023FB6016E03A68FB6808339B00C1
:10174000D31804331B689A1D396883231B018A1838
:10175000D3181B781A007B68934201D1FB6806E01E
:10176000FB680133FB60FB681F2BE5DD00231800DD
:10177000BD4604B080BD000090B585B000AF786074
:1017800039601D497A68A42013001B019B1A9B0035
:101790009B18DB00CB181B181A683B68D3181A1D5E
:1017A000164983231B018A18D3181B789AB20E247A
:1017B0003B1912021A8010497A68A42013001B01F9
:1017C0009B1A9B009B18DB00CB181B181A683B6800
:1017D000D3185A1D094983231B018A18D3181B7873
:1017E00099B23B193A1912888A181A803B191B883A
:1017F0001800BD4605B090BD5CA40220D42803208B
:10180000B0B588B000AFF860B9607A603B60FB6843
:101810001800FFF7F7FB0300FB61FB69002B00DA00
:10182000C8E07A68B968FB691800FFF751FF7A6869
:10183000B968FB691800FFF74DFD02005F4B1A62A3
:101840005E4A3B6808339B00D31804331B681A00B8
:101850005B4BD318BB61BB6904331B781A00802330
:1018600093401A00574B5A60564B59685648FA69CC
:10187000A42413001B019B1A9B009B18DB00C318B8
:101880001B191960514B0022DA714C4A3B6808332E
:101890009B00D31804331B68002B09DC494B002242
:1018A0009A604A4B00221A73484B01225A7282E016
:1018B000BB69033B16257C190821180003F060FD65
:1018C000030023807B191A883C493B6808339B003E
:1018D000CB1804331B68591D384883231B0141185A
:1018E000CB181B78190235483B6808339B00C31896
:1018F00004331B68981D314C83231B012018C31827
:101900001B78CB189A4202D0304B0122DA712B4A55
:101910003B6888339B00D31804331B683B613B69E9
:10192000002B09DA274B00229A60284B00221A73F9
:10193000264B01225A723EE03B69DA1C1F49832381
:101940001B018A18D3181A78204B1A763B691A1D86
:101950001C4B9A601D4B00225A721C4BFB221A73BF
:101960003B69832212019A18144BD0181649FA6960
:10197000A42413001B019B1A9B009B18DB00CB18AF
:101980001B191B68043316257C19190003F0F8FC99
:10199000030023803A69FB6911001800FFF7ECFE91
:1019A00003001A007B191B88934204D0074B0122C5
:1019B000DA7100E0C046BD4608B0B0BDD4280320AF
:1019C00004310320202803205CA402208020002072
:1019D00080B586B000AFF860B9607A603B60FB68A4
:1019E0001800FFF70FFB03007B617B69002B4BDBCB
:1019F0007A68B9687B691800FFF76AFE244B0022F9
:101A0000DA71244A3B6811001800FFF78DFE0300CD
:101A10003B61204A3B6988339B00D31804331B6821
:101A2000DA1C1C4983231B018A18D3181A78184B17
:101A30001A76184A3B6811001800FFF775FE03007C
:101A4000144A88339B00D31804331B681A1D124BA9
:101A50009A60104A3B6908339B00D31804331B6813
:101A6000DA1D0C4983231B018A18D3181B781A002E
:101A7000802393401A00084B5A60054B00225A728B
:101A8000034BFB221A7300E0C046BD4606B080BD82
:101A900080200020D42803202028032080B586B091
:101AA00000AFF860B9607A603B60FB681800FFF730
:101AB000A9FA03007B6111497A69842013001B0194
:101AC0009B1A9B009B18DB00CB181B181B68012B73
:101AD00002D0022B07D00DE03B687A68B968F8683D
:101AE000FFF78EFE06E03B687A68B968F868FFF792
:101AF0006FFFC046C046BD4606B080BD5CA4022054
:101B000090B583B000AF78607B68032B00DD36E1D1
:101B10007A6813001B019B1A9B009B18DB009B4AF1
:101B20009B1804330321180003F08CFC97497A6852
:101B300013001B019B1A9B009B18DB005850934914
:101B40007A6813001B019B1A9B009B18DB005B58F3
:101B5000002B00D115E18D497A68842013001B0108
:101B60009B1A9B009B18DB00CB181B1801221A60E4
:101B700086497A6813001B019B1A9B009B18DB00A7
:101B800058587A6813001B019B1A9B009B18DB00B6
:101B900088331A007D4BD31804331022190003F048
:101BA000C1FC7A497A688C2013001B019B1A9B00A8
:101BB0009B18DB00CB181B181C7874497A689C2092
:101BC00013001B019B1A9B009B18DB00CB181B18F2
:101BD000221C1A706D497A688D2013001B019B1A14
:101BE0009B009B18DB00CB181B181C7867497A6890
:101BF000882013001B019B1A9B009B18DB00CB184D
:101C00001B18221C1A7061497A688F2013001B016F
:101C10009B1A9B009B18DB00CB181B181B789BB2F0
:101C20001B0299B259487A688E2413001B019B1A33
:101C30009B009B18DB00C3181B191B789BB2CB18A9
:101C40009CB252497A689E2013001B019B1A9B008C
:101C50009B18DB00CB181B18221C1A804B497A6892
:101C60009E2013001B019B1A9B009B18DB00CB18C6
:101C70001B181A888023DB019A420DD943497A68E0
:101C80009E2013001B019B1A9B009B18DB00CB18A6
:101C90001B183F4A1A8075E03C497A68902013006F
:101CA0001B019B1A9B009B18DB00CB181B181B7891
:101CB0001A00102313400DD034497A68A020130075
:101CC0001B019B1A9B009B18DB00CB181B180122E1
:101CD0001A700CE02D497A68A02013001B019B1A92
:101CE0009B009B18DB00CB181B1802221A70274997
:101CF0007A68902013001B019B1A9B009B18DB0045
:101D0000CB181B181B781A00402313400DD01F4915
:101D10007A68A12013001B019B1A9B009B18DB0013
:101D2000CB181B1800221A700CE018497A68A12001
:101D300013001B019B1A9B009B18DB00CB181B1880
:101D400001221A7011497A68902013001B019B1A16
:101D50009B009B18DB00CB181B181B785BB2002B79
:101D600010DA0A497A68A12013001B019B1A9B0014
:101D70009B18DB00CB181B1800221A7002E0C0462B
:101D800000E0C046BD4603B090BDC0465CA4022042
:101D9000FF3F000090B583B000AF78607B68032BF5
:101DA00000DD94E07A6813001B019B1A9B009B18CE
:101DB000DB004A4A9B1804330321180003F042FB5E
:101DC00046497A6813001B019B1A9B009B18DB0095
:101DD000585042497A6813001B019B1A9B009B18BC
:101DE000DB005B58002B74D03C497A6884201300D8
:101DF0001B019B1A9B009B18DB00CB181B180222AF
:101E00001A6036497A6813001B019B1A9B009B18C5
:101E1000DB0058587A6813001B019B1A9B009B1823
:101E2000DB0088331A002D4BD31804331A22190013
:101E300003F078FB29497A6813001B019B1A9B0069
:101E40009B18DB00585825497A689E2413001B0113
:101E50009B1A9B009B18DB00CB181B191B885B028D
:101E6000190003F09BFB1D497A6813001B019B1AA4
:101E70009B009B18DB0058587A6813001B019B1AC3
:101E80009B009B18DB00A0331A00144BD3180633B9
:101E9000A0225200190003F045FB10497A689520F2
:101EA00013001B019B1A9B009B18DB00CB181B180F
:101EB0001C780A497A68882013001B019B1A9B0032
:101EC0009B18DB00CB181B18221C1A7002E0C046BE
:101ED00000E0C046BD4603B090BDC0465CA40220F1
:101EE00080B582B000AF78601D497A688420130005
:101EF0001B019B1A9B009B18DB00CB181B180022B0
:101F00001A607A6813001B019B1A9B009B18DB0068
:101F1000134A9B180433134A1100180003F072F897
:101F2000031E04D07B681800FFF7EAFD14E07A680E
:101F300013001B019B1A9B009B18DB00084A9B188F
:101F40000433094A1100180003F05CF8031E03D0A3
:101F50007B681800FFF71EFFC046BD4602B080BD7B
:101F60005CA40220586E0110606E011080B584B030
:101F700000AF7860124B0A21180003F063FA0300E7
:101F8000FB60FB68002B17D00E4B01221A707A6899
:101F90000D4B1100180014F013FD7B68180014F0AD
:101FA00017FD02007968FB68180003F0DBFAFB6894
:101FB000180003F09FFA00E0C046BD4604B080BDA3
:101FC000686E01106573032030280320B0B5E8B0B7
:101FD00000AF4C4B00221A704B4B0121180003F04C
:101FE00031FA0300CC2464003A1913603B191B68D2
:101FF000002B00D180E045493B191B684E22180098
:1020000003F00FFB0300CE256D007A1913603B1916
:102010001B68180003F06EFA3C4B0121180003F016
:1020200011FA03002200B9180B60BB181B68002BC3
:1020300064D09423F918BB181B687E22180003F0A3
:10204000F0FA03007A19136048E09423FB18180093
:1020500002F0BEFE0300CA225200B9180B60BB1882
:102060001B681B785B2B08D18423F918BB181B68ED
:102070000F22180002F0DEFE21E0CA2464003B19A2
:102080001B681B78002B1AD03B191B681B783B2B55
:1020900015D03B191B68180002F086FF391D3B194B
:1020A0001B687F22180002F00DFF03003A1913602D
:1020B0003B191A683B1D11001800FEF74FFF9423CF
:1020C000F918CC235B00FB181B687E22180003F074
:1020D000A8FA0300CE225200BA181360CE235B0088
:1020E000FB181B68002BB0DACC235B00FB181B68C5
:1020F000180003F0FFF902E0C04600E0C046BD460C
:1021000068B0B0BD65730320686E011030280320ED
:1021100080B582B000AFB0235A00314B00211800C7
:102120000AF0B6FD2E4B01221A712E4B01225242AB
:102130005A602C4B012252429A602A4B0122524291
:10214000DA6000237B6011E07A6813001B019B1AA0
:102150009B009B18DB00244A9B18F42252000021AC
:1021600018000AF095FD7B6801337B607B68032BC8
:10217000EADDFFF72BFF00237B6013E01A497A6842
:1021800013001B019B1A9B009B18DB00CB18043328
:102190001B78002B03D07B681800FFF7A1FE7B683B
:1021A00001337B607B68032BE8DD104B00221A6053
:1021B0000B4B0022DA730A4BFF221A70084BFF22E6
:1021C0001A740B4B1978064B48229954094900227E
:1021D00000230A604B60C046BD4602B080BDC046C9
:1021E00080200020D42803205CA4022058B90220BB
:1021F0006E730320581C002080B500AF074BDB7EB8
:10220000002B08D0054B0022DA76044B00221A7707
:10221000FEF718FC00E0C046BD4680BD80200020CF
:1022200080B500AF074B00221A62064B1B7F002BC4
:1022300004D0044B00221A77FEF704FCC046BD46CA
:1022400080BDC0468020002080B582B000AFFB1D5D
:102250000D4AD27D1A700C4B7F229A75FFF7E0FF72
:10226000FB1D1B785BB2002B0ADA074B01229A7325
:1022700001210D20FEF742FE00210D20FEF73EFE5B
:10228000C046BD4602B080BD8020002080B500AFB2
:10229000034B01225A73FFF7C3FFC046BD4680BD02
:1022A0008020002080B582B000AF00237B6032E048
:1022B00022497A6813001B019B1A9B009B18DB00C4
:1022C0005B58002B15D01D497A6813001B019B1A1F
:1022D0009B009B18DB005B58180003F00BF91749B3
:1022E0007A6813001B019B1A9B009B18DB000022DD
:1022F0005A507A6813001B019B1A9B009B18DB0045
:102300000E4A9B18F4225200002118000AF0C0FC6B
:102310007B6801337B607B68032BC9DD084B1B683E
:10232000002B07D0064B1B68180003F0E3F8044BA2
:1023300000221A60C046BD4602B080BD5CA40220E7
:1023400058B9022080B582B000AF00237B60144BE7
:102350001B7D1A001023134001D001237B60104B1A
:10236000FF225A700E4B01225A740D4B1B7D180030
:10237000FEF748FE03003B6079683B6800221800C6
:10238000FFF7A6F9FFF738FF054B00221A71044B3F
:1023900000225A70FFF758FFC046BD4602B080BD0C
:1023A0008020002080B584B000AF0200FB1D1A70B1
:1023B0000323FB60FB1D1B7803221340032B11D06A
:1023C00013DC022B0BD010DC002B02D0012B03D02E
:1023D0000BE00323FB6008E00623FB6005E00A2313
:1023E000FB6002E00F23FB60C046FB681800BD469F
:1023F00004B080BDF0B58BB000AF00233B62544BFE
:102400001B7D1A001023134001D001233B62504B67
:1024100001225A744E4B1B7D1800FEF7F3FD03009A
:10242000FB614C4B5B68FA699A4203D0494B01222D
:1024300052425A60464BD9784748FA6988261300B9
:102440001B019B1A9B009B18DB00C3189B191B7870
:1024500099420AD33E4B01221A723D4B00221A7157
:10246000FFF7CAFEFFF7F0FE6FE0394B1B7818004C
:10247000FFF798FF0300BB61354B5A78344BDB788C
:102480009A4209D9324B5B781A00314BDB78D21A69
:10249000BB6953437B6208E02D4BDB781A002C4B61
:1024A0005B78D21ABB6953437B6205F0C5FE02001C
:1024B0000B003A617B6105F0BFFE7A6A13005B0195
:1024C0009B1A9B009B18DB001C00DB171D00020001
:1024D0000B0012196B4121490A604B601C4BDB78E1
:1024E0001A00396AFB691800FFF7F2F8FFF784FE5B
:1024F00005F0A2FE02000B00BA60FB60B868F96844
:102500003A697B69801A994102000B003A607B604E
:10251000134B1A685B687968994205D879689942C3
:1025200007D13968914204D90D493A687B680A603D
:102530004B60074BDA78064B5A70054B00221A7233
:10254000034B00221A71FFF77FFEBD460BB0F0BDB2
:1025500080200020D42803205CA40220601C0020DE
:10256000581C0020B0B584B000AF0023FB60394B8D
:102570001B7D1A001023134001D00123FB60354B53
:1025800001225A74334B1B7D1800FEF73BFD0300FC
:10259000BB60304B1B7C1A00102313401ED02D4B08
:1025A00012229B5E002B0ADD2A4B5B78FF2B06D0A4
:1025B000284B5B780133DAB2264B5A700EE0254B7C
:1025C00012229B5E002B09DA224B5B78002B05D090
:1025D000204B5B78013BDAB21E4B5A701D4B1B78C7
:1025E0001800FFF7DFFE03007B6005F025FE7A6828
:1025F00013005B019B1A9B009B18DB001C00DB1780
:102600001D0002000B0012196B4113490A604B6058
:10261000104B5B781A00F968BB681800FFF758F890
:10262000FFF7EAFDC04605F007FE0B4B1A685B6832
:102630008B42F8D801D18242F5D8064B00221A729B
:10264000044B00221A71FFF7FFFDC046BD4604B0DF
:10265000B0BDC04680200020601C0020B0B584B012
:1026600000AF0023BB603C4B1B7D1A0010231340BE
:1026700001D00123BB60384B01225A74364B012232
:102680005A820F217B18344A52781A700A00BB18FC
:102690001B78FF2B04D0BB18BA18127801321A70BD
:1026A0002D4B1B7C1A001023134004D02A4B0F2201
:1026B000BA1812785A70284B1B7D1800FEF7A2FC3E
:1026C00003007B60254B5B687A689A4203D0234BFA
:1026D000012252425A60204B1B781800FFF762FE1D
:1026E00003003B6005F0A8FD3A6813005B019B1AEC
:1026F0009B009B18DB001C00DB171D0002000B0079
:1027000012196B4116490A604B600F23FB181A78A7
:10271000B9687B681800FEF7DBFFFFF76DFDC04668
:1027200005F08AFD0E4B1A685B688B42F8D801D120
:102730008242F5D8084B0F22BA1812785A70064B0D
:1027400000221A72044B00221A71FFF77DFDC04669
:10275000BD4604B0B0BDC04680200020D428032070
:10276000601C0020B0B584B000AF0023BB602F4BCD
:102770001B7D1A001023134001D00123BB602B4B9B
:1027800001225A74294B012252425A820F217B188E
:10279000264A52781A700A00BB181B78002B04D006
:1027A000BB18BA181278013A1A70204B1B7C1A0019
:1027B0001023134004D01D4B0F22BA1812785A7000
:1027C0001A4B1B781800FFF7EDFD03007B6005F046
:1027D00033FD7A6813005B019B1A9B009B18DB009A
:1027E0001C00DB171D0002000B0012196B41104981
:1027F0000A604B600F23FB181A78B9683B68180011
:10280000FEF766FFFFF7F8FCC04605F015FD084B24
:102810001A685B688B42F8D801D18242F5D8FFF77D
:1028200013FDC046BD4604B0B0BDC04680200020A8
:10283000601C002080B582B000AF00237B602A4B73
:102840001B7D1800FEF7DEFB03003B60264B0222D7
:102850005A74254B1B7D1A001023134001D001230D
:102860007B60224B1B78002B02D0204B01221A7078
:102870001D4B1B7D18001C4B5B781A001A4B9B7874
:102880007968FFF70BF9FFF7B7FC174B5B7A002B62
:1028900003D0154B00221A7122E0134B00221A6458
:1028A000114BFA229200DA630F4B00225A73104B3D
:1028B0005A68104B5A610E4B9B681A000E4BD21887
:1028C0000C4B0E495A500B4B5A690A4B1A61064B76
:1028D00001225A63044B00229A63034B00225A657B
:1028E000BD4602B080BDC046802000206673032034
:1028F00020280320D42803200431032024080000CA
:1029000080B582B000AF00237B60354B1B7D180083
:10291000FEF778FB03003B60314B02225A74304BC8
:102920001B7D1A001023134001D001237B602C4B28
:10293000FB221A732A4B00221A64294B1B7D1800B4
:10294000274B5B781A00264B9B787968FFF7A6F82F
:10295000234B00225A73224B9B781A00214B1A609A
:1029600021493A68A42013001B019B1A9B009B1865
:10297000DB00CB181B181A681A4B5A60184B5B788F
:102980001A0079683B681800FEF7A4FC0200174B98
:102990001A62144B9B681A00154BD218134B154939
:1029A0005A50104B5A68114B9A610E4B5A680F4B94
:1029B000DA610B4B02225A63094B00229A63084BDF
:1029C0001B7C1A000123134003D1064BFB221A7310
:1029D00002E0044BF8221A73C046BD4602B080BD27
:1029E00080200020202803205CA40220D42803207B
:1029F000043103202808000080B500AF0C4B0322EF
:102A00005A740020FEF794FC030001338322120164
:102A10009A18084BD218074B07495A50054B062203
:102A20005A61044B06221A61C046BD4680BDC046AD
:102A300080200020D42803202408000080B500AFA7
:102A40000D4B04225A740D4B00225A610B4B00228D
:102A50001A610A4B0022DA61074B1B7C0F221340DC
:102A6000DAB2054B5A76064B0B22002118000AF009
:102A70000FF9C046BD4680BD80200020D428032029
:102A80008420002080B500AF024B03225A74C04658
:102A9000BD4680BD8020002080B582B000AF0023FD
:102AA0007B60224B03225A74204B1B7D1A0010239B
:102AB000134001D001237B601D4BFE2292010021B7
:102AC00018000AF0E5F8194B1B7D1800FEF79AFA7A
:102AD0000200184B5A60174B7A689A60134B5B7868
:102AE0001A00144BDA60124A124B13495A50114B18
:102AF0005A6812499E2013001B019B1A9B009B18C9
:102B0000DB00CB181B181B881A000A4BDA61094B33
:102B1000DA69084B9A61054B03225A63034B002282
:102B20009A63C046BD4602B080BDC04680200020EA
:102B300084310320D4280320280800005CA402204C
:102B4000B0B5D8B000AF8B4B02225A74894B00222B
:102B50001A64884B884ADA63864B04225A63854B91
:102B600000229A63834B00225A73824B5822002121
:102B70009954804B592200219954804A804B10006F
:102B8000190012231A000AF089F87C4A7D4B1B6851
:102B90001900100013F04AFE784C200013F018FFC3
:102BA0000300E218784B1000190002231A000AF003
:102BB00075F8724C200013F00BFF0300E218734B02
:102BC0001000190009231A000AF068F86B4B704ACC
:102BD0001100180013F02AFE684C200013F0F8FED4
:102BE0000300E218684B1000190002231A000AF0D3
:102BF00055F8684B1B78002B5BD0654B0121180002
:102C000002F020FC0300AA225200B9180B60BB1886
:102C10001B68002B0DD1594C200013F0D9FE030086
:102C2000E2185D4B1000190022231A000AF036F852
:102C30007DE0A8235B00FB181A683900AA235B001B
:102C4000FB181B68180002F0ECFC0300AC225200D9
:102C5000BA1813601FE0AC235B00FB181B68022B43
:102C60000BDD464B3A00FE21180002F027FB434BD8
:102C7000454AFE21180002F021FB3900AA235B001F
:102C8000FB181B687E22180002F0CBFC0300AC226C
:102C90005200BA181360AC235B00FB181B68002BB2
:102CA000D9DAAA235B00FB181B68180002F022FC8B
:102CB0003DE00023AE225200BA18136031E0AE2589
:102CC0006D007B191A683549882464003B19180087
:102CD00008F0AEFF294B3A191100180013F0A6FDB9
:102CE00026487B191A6813001B019B1A9B009B182E
:102CF000DB002B4A9B180433190013F097FD1F4C7F
:102D0000200013F065FE0300E2181F4B10001900AD
:102D100002231A0009F0C2FF7B191B6801337A19DC
:102D20001360AE235B00FB181B68032BC7DD134B3E
:102D3000180013F04DFE0300023319000D4AAC23B6
:102D40005B00D1500B4AAC235B00D358D9B2094B7E
:102D500058229954074AAE235B000021D150054BFD
:102D600001225A73034B00221A71C046BD4658B067
:102D7000B0BDC04680200020A0860100D9200020E0
:102D8000746E01101C0D0020886E01108C6E0110F5
:102D90003028032065730320986E0110BC6E01106B
:102DA0005CA4022080B584B000AF786039607B6895
:102DB000FB603B68BB60FB6816331A00BB681633C8
:102DC0001900100002F0B0F903001800BD4604B06D
:102DD00080BD0000F0B589B004AF7860A14B02223D
:102DE0005A74A14B00221A60A04B00221A60A04A1C
:102DF000A04B1000190009231A0009F04FFF9C4B4B
:102E0000180013F0E5FD0300DBB20233D9B2954B95
:102E100058229954984B38220021180009F038FFA5
:102E20008C235A00954B0021180009F031FF944A79
:102E3000944B0021180009F02BFF7A68924B110087
:102E4000180013F0BDFD0F257C19904B904A8B495B
:102E500089480FF04AFB030023707B191B78002B75
:102E600057D0834A8B4B1000190018231A0009F021
:102E700015FF7F4B180013F0ABFD0300D9B2794B5F
:102E800058229954774B00225A73764B00221A71BC
:102E9000E5E07A4B1B7A1A001023134027D1774BB9
:102EA0001B7A1A000423134021D1774B1B782A2B5D
:102EB00007D0754A784B1100180002F0A3F8031EE2
:102EC00015D06A4B1A6813009B009B18DA00D21ABF
:102ED000D3001A006B4BD3188C225200674918009C
:102EE00009F0DCFE614B1B685A1C604B1A60634B97
:102EF0009B7D0F203A18391809781170002B08D0E3
:102F00003C185E4A5C4B110018000FF0C0FA030039
:102F100023700F23FB181B78002B07D1574B9B7D89
:102F2000002B03D0514B1B68632BB2DD524B1800B2
:102F30000FF02DFA4D4B1B68002B66DD4B4B1B68C9
:102F40001900564B8C2252004E4813F007F9484C9A
:102F5000454B1A684B4913009B009B18DA00D21AA4
:102F6000D3001A008B1804331B885B099BB21A002C
:102F70000F2313405E1C3C4B1A68424913009B0010
:102F80009B18DA00D21AD3001A008B1804331B885E
:102F90001A000F23134001339C46334B1A683949FA
:102FA00013009B009B18DA00D21AD3001A008B186A
:102FB00004331B885B0A9BB2394A99182A4B1A685A
:102FC000304813009B009B18DA00D21AD3001A0075
:102FD0001058254B1A6813009B009B18DA00D21A70
:102FE000D3001A001032274BD31806332D4D02930D
:102FF00001900091634632002900200008F018FE7D
:10300000194B1B685A1C184B1A60194B180013F007
:10301000DFFC030002331900124AAC235B00D150DD
:10302000104AAC235B00D358D9B20E4B58229954A6
:103030000C4AAE235B000021D1500A4B00221A64D7
:10304000084B194ADA63074B04225A63054B0022E6
:103050009A63044B01225A73024B00221A71BD4637
:1030600005B0F0BD80200020E4270320E0270320E6
:10307000D9200020C46E011024A40220C026032001
:10308000606D000060B9022080280320D06E01101E
:10309000D46E0110D86E0110D6260320A52D001085
:1030A000BC070000F06E0110A0860100F0B587B0EB
:1030B00004AFFB1D00221A70BB1D00221A704D4B7D
:1030C00002225A744C4B1A684C4B1B689A425EDAC7
:1030D0004B4C494B1A684B4913009B009B18DA0074
:1030E000D21AD3001A008B1804331B885B099BB2D9
:1030F0001A000F2313405E1C3F4B1A68414913000E
:103100009B009B18DA00D21AD3001A008B180433E4
:103110001B881A000F23134001339C46364B1A6854
:10312000384913009B009B18DA00D21AD3001A000A
:103130008B1804331B885B0A9BB2334A99182E4BB9
:103140001A68304813009B009B18DA00D21AD3008B
:103150001A001058284B1A6813009B009B18DA00BD
:10316000D21AD3001A001032264BD3180633274D3B
:10317000029301900091634632002900200008F07C
:1031800057FD1D4B1B685A1C1B4B1A6003E0194B63
:103190005922002199541A4B180013F019FC03000E
:1031A00002331900134AAC235B00D150114AAC23FF
:1031B0005B00D358D9B20F4B582299540D4AAE2315
:1031C0005B000021D1500B4B00221A64094B104ABE
:1031D000DA63084B04225A63064B00229A63054BBC
:1031E00001225A73034B00221A71C046BD4603B038
:1031F000F0BDC04680200020E4270320E027032004
:10320000D920002060B90220BC070000F06E011038
:10321000A086010080B500AF084B02225A74074B0C
:1032200000221A64054B00225A73044B05225A638C
:10323000024B00229A63C046BD4680BD802000201C
:1032400080B500AF084B02225A74074B00221A6463
:10325000054B00225A73044B06225A63024B00228C
:103260009A63C046BD4680BD8020002080B500AF77
:10327000184B02225A74184B1B681849FA2218007E
:1032800002F050F90300D9B2124B58229954114B55
:1032900058229B5C591C0F4AAC235B00D1500D4A4D
:1032A000AE235B000021D1500A4B00221A64094B67
:1032B0000B4ADA63074B04225A63064B00229A63D7
:1032C000044B01225A73034B00221A71C046BD46BB
:1032D00080BDC0468020002058B90220D92000209F
:1032E000A086010080B500AF084B02225A74074B3C
:1032F00000221A64054B00225A73044B07225A63BA
:10330000024B00229A63C046BD4680BD802000204B
:1033100080B500AF084B1B68002B07D0064B1B681D
:10332000180002F0E7F8044B00221A60034B002259
:103330001A71C046BD4680BD58B9022080200020C9
:1033400080B500AF084B02225A74074B00221A6462
:10335000054B00225A73044B08225A63024B002289
:103360009A63C046BD4680BD80200020F0B58BB07A
:1033700004AF2B4B02225A74294B2A4A1A64284B59
:1033800004225A63264B00229A63254B01225A736A
:10339000234B00221A71244B1B683A0011001800BD
:1033A00001F0FAFA214C3B001B695D1C3B00DB6815
:1033B0005E1C3B005B691E4A94466344642118000E
:1033C00008F008FD0B009C463B009A683B005968DA
:1033D0003B001B68174803930291019263460093D8
:1033E00033002A000100200008F022FC0F4B1800D7
:1033F00013F0EEFA0300D9B2094B58229954084B46
:1034000058229B5C991C064AAC235B00D150044AAD
:10341000AE235B000021D150C046BD4607B0F0BDD1
:1034200080200020A086010000AC0220D9200020CE
:10343000BC070000046F011080B500AF474B0022AD
:103440009A63464B00225A63444B1A78434B1A74D2
:10345000424B0022DA73414B1B7D0F2B47D13F4B70
:103460001B7C822B3BD03FDC812B33D03CDC0A2BF6
:1034700008DC002B38DD0A2B36D89A00384BD318DD
:103480001B689F46802B20D02EE0FFF759FB2BE0D6
:10349000344B1800FFF79EFC26E0FFF707FE23E001
:1034A000FFF7B8FE20E0FFF7CBFE1DE0FFF7DEFEE2
:1034B0001AE0FFF717FF17E0FFF72AFF14E0FFF706
:1034C0003FFF11E0FFF752FF0EE0274B1800FFF718
:1034D00081FC09E0254B1800FFF77CFC04E0244B3D
:1034E0001800FFF777FCC046FEF786FE34E01B4B62
:1034F0001B7C1B09DBB20F2B25D89A001D4BD31860
:103500001B689F46FEF71EFF26E0FEF773FF23E0D1
:10351000FFF728F820E0FFF7A1F81DE0FFF722F9F8
:103520001AE0FFF787F917E0FFF7EAF914E0FFF771
:1035300063FA11E0FFF782FA0EE0FFF7A3FA0BE05F
:10354000FFF7AAFA08E0FEF757FE0B4B0B2200210B
:10355000180009F09DFBC046BD4680BD80200020BC
:10356000846F0110D06E0110246F01102C6F0110B8
:10357000346F0110B06F01108420002080B500AFBF
:103580004E4B9B6B052B00D995E09A004C4BD31802
:103590001B689F46494B00221A64484B9B6B5A1C80
:1035A000464B9A6387E0454B1A7E444B1A73434B54
:1035B00000221A64414B9B6B5A1C404B9A637AE081
:1035C0003E4B9B6B5A1C3D4B9A633C4B6422DA6327
:1035D00071E03A4B5B7B002B0AD0384BDB6B002B46
:1035E00064D1364B00225A73344B01229A715DE04C
:1035F000324B6422DA63314B9B6B5A1C2F4B9A631C
:1036000059E0304B1B69002B07DD2C4B1B7F002B37
:1036100003D12A4BDB6B002B4AD12A4B2A4A9B58F9
:103620001A78264BDA70254B6422DA63254B1B6926
:10363000002B1ADD234B244A9B585A1C214B22494C
:103640005A50204B1B695A1E1E4B1A611D4B1B6999
:10365000002B02D1194B00225A65FEF717FE174BBB
:103660009B6B5A1E154B9A6325E0144B00225A643B
:10367000124B00221A64114B1422DA630F4B9B6B1E
:103680005A1C0E4B9A6316E00C4BDB6B002B11D1CE
:10369000FEF7DAFD094B00221A71084B00225A632B
:1036A000064B9B6B5A1C054B9A6304E0C04602E034
:1036B000C04600E0C046C046BD4680BD8020002018
:1036C000F06F0110D42803202408000080B584B0D6
:1036D00000AF78602C4B5B68002B4CDB2A4B5B689F
:1036E000032B48DC284B5A68284913001B019B1AFE
:1036F0009B009B18DB005B58002B3ED0224A7B6866
:1037000088339B00D31804331B68FB60FB68002BD5
:1037100035DB1D4B5A681D4913001B019B1A9B008A
:103720009B18DB005858184B1A6AFB68D31819000D
:1037300001F034FF144B5A68144913001B019B1A03
:103740009B009B18DB005858FA68114BD118114B9D
:103750005B6806331A0001F005FF0B4B5A680B49F2
:1037600013001B019B1A9B009B18DB005B58180081
:1037700001F028FF04E0C04602E0C04600E0C04679
:10378000BD4604B080BDC046D42803205CA40220FE
:10379000043103202028032080B584B000AF786076
:1037A0000F4B1B7D1800FDF72DFC0300FB600D493E
:1037B000FA68842013001B019B1A9B009B18DB00F6
:1037C000CB181B181B68012B04D17B681800FFF76E
:1037D0007DFF00E0C046C046BD4604B080BDC04687
:1037E000802000205CA40220B0B584B000AF7860D7
:1037F00039601F4A7B6888339B00D31804331B68E9
:10380000FB60FB68002B2FDBFB68832212019A18F8
:10381000174BD2183B6804330A257C191900100095
:1038200001F0AEFD030023802C003B191B881B0A0E
:1038300099B2FA683B68D3181A1DC8B20C498323A1
:103840001B018A18D318021C1A70FA683B68D31837
:103850005A1D3B191B88D8B2054983231B018A18BE
:10386000D318021C1A7000E0C046BD4604B0B0BDBB
:10387000D428032080B584B000AF78603960194A3D
:103880007B6888339B00D31804331B68BB60BB681C
:10389000002B22DB0023FB601BE0BA68FB68D21818
:1038A000104983231B018A18D3181B78A12B0DD034
:1038B000BA68FB68D2180C4B187B0A4983231B019A
:1038C0008A18D318021C1A700423FB60FB680133AA
:1038D000FB60FB68032BE0DD00E0C046BD4604B0A2
:1038E00080BDC046D42803202028032080B500AF27
:1038F000514B9B6B042B00D99BE09A004F4BD31884
:103900001B689F464C4B1B6C182B04DC4A4BDB6B33
:10391000002B00D086E0FEF7B9FC474B9B6B5A1C8E
:10392000454B9A6385E0444B5B7B002B00D07BE0EA
:10393000414BFA229200DA633F4B9B6B5A1C3E4B81
:103940009A6376E03C4B1B7F002B03D13A4BDB6B39
:10395000002B6BD13A4B3B4A9B58374AD2781A70AE
:10396000374B9B69002B24DD354B364A9B585A1C3C
:10397000334B34495A50324B9B695A1E304B9A6133
:103980002F4B9B69002B05D12B4B9B6B5A1C2A4B51
:103990009A634EE02A4B9B69012B02D1264B0122F0
:1039A0009A76254B9B6B5A1E234B9A63FEF76EFC4F
:1039B0003FE0214BC822DA631F4B9B6B5A1C1E4B06
:1039C0009A6336E0204B1A681F4B5B6819001000A1
:1039D000FFF750FF1C4B1A681B4B5B681900100067
:1039E000FFF702FF184B1B681800FFF7D5FEFEF724
:1039F00017FC114B9B6B5A1C0F4B9A630E4BC82242
:103A0000DA6316E00C4BDB6B002B11D1FEF71CFCCC
:103A1000094B00221A71084B00229A63064B0022C0
:103A20005A6306E0C04604E0C04602E0C04600E03B
:103A3000C046C046BD4680BD8020002008700110F1
:103A4000D42803202808000020280320B0B586B021
:103A500000AF78607B6883221201944663447B61E7
:103A60007B6883221201944663443B610023FB6020
:103A70003AE03B691B78F72B0FD02FDCF52B02D0F7
:103A8000F62B06D02AE03B697B613B69A1221A70C4
:103A900024E03B69C2221A7020E07B69981E3A69D3
:103AA0007B69D31A02330A257C19190001F068FCDE
:103AB0000300238029007B181B881B0A9BB2DAB203
:103AC0003B691A703B6901333B61FB680133FB6062
:103AD0007B181B88DAB23B691A70C0463B69013318
:103AE0003B61FB680133FB607B68054A9B58FA68C1
:103AF0009A42BEDBC046C046BD4606B0B0BDC04619
:103B00002C08000090B589B000AF78607B688322F4
:103B10001201944663443B617B685A680F23F9188D
:103B20004248A12413001B019B1A9B009B18DB0039
:103B3000C3181B191B780B707B683D4A9B58BB60F0
:103B40003B6980220021180009F0A2F88023BB61A4
:103B500000237B6161E01F23FB1800221A7022E022
:103B6000BB693A69D3181B78A12B19D1BB69013302
:103B70003A69D3181B78A12B12D1BB6902333A6979
:103B8000D3181B78A12B0BD1BB6903333A69D31827
:103B90001B78FE2B04D11F23FB1801221A7002E0B0
:103BA000BB690133BB611F23FB181B78002B03D1BA
:103BB000BA69BB689A42D3DB1F23FB181B78002B22
:103BC0002BD0BB690333BB617B695B001A003B6987
:103BD0009B18BA69D2B21A70BB6919127B695B0073
:103BE00001333A69D318CAB21A700F23FB181B7835
:103BF000012B0FD17B695B0001333A69D3181A7826
:103C00007B695B0001333969CB18802149420A4343
:103C1000D2B21A707B6901337B61BA69BB689A4280
:103C200099DBC046C046BD4609B090BD5CA40220E9
:103C30002C08000080B582B000AF78607B685B68BC
:103C4000002B4DDB7B685B68032B49DC7B685A6883
:103C5000264913001B019B1A9B009B18DB005B5835
:103C6000002B3FD07B6858687B6899687B68DB686D
:103C70001A00FDF72FFB02007B681A627B685A6806
:103C80001A4913001B019B1A9B009B18DB005A5812
:103C90007B681B6A1900100001F080FC7B685A6881
:103CA000124913001B019B1A9B009B18DB005858FC
:103CB0007B688322120199187B680D4A9B581A0071
:103CC00001F050FC7B685A68084913001B019B1ADD
:103CD0009B009B18DB005B58180001F073FC02E0AE
:103CE000C04600E0C046BD4602B080BD5CA40220D4
:103CF0002C08000080B582B000AF78607B681B683C
:103D0000012B04D17B681800FFF794FF00E0C04648
:103D1000C046BD4602B080BD80B500AF4F4B9B6B27
:103D2000042B00D996E09A004D4BD3181B689F4690
:103D30004A4B1B6C182B04DC484BDB6B002B00D070
:103D400081E0FEF7A3FA454B9B6B5A1C434B9A63E9
:103D500080E0424B5B7B002B00D076E03F4BFA22A9
:103D60009200DA633D4B9B6B5A1C3C4B9A6371E0AB
:103D70003A4B1B7F002B03D1384BDB6B002B66D1FA
:103D8000384B394A9B58354AD2781A70354B9B6963
:103D9000002B24DD334B344A9B585A1C314B32499B
:103DA0005A50304B9B695A1E2E4B9A612D4B9B6982
:103DB000002B05D1294B9B6B5A1C284B9A6349E079
:103DC000284B9B69012B02D1244B01229A76234B6D
:103DD0009B6B5A1E214B9A63FEF758FA3AE01F4B31
:103DE000C822DA631D4B9B6B5A1C1C4B9A6331E053
:103DF0001C4B1800FFF72AFE1A4B1800FFF782FE33
:103E0000184B1800FDF748FB164B1800FFF772FF20
:103E1000FEF706FA114BC822DA63104B9B6B5A1C53
:103E20000E4B9A6316E00D4BDB6B002B11D1FEF7A6
:103E30000BFA0A4B00221A71084B00229A63074BB7
:103E400000225A6306E0C04604E0C04602E0C046D5
:103E500000E0C046C046BD4680BDC0468020002070
:103E60001C700110D42803202808000080B582B0FF
:103E700000AF6A4B9B6B022B39D000DDCAE0002BF0
:103E800002D0012B0FD0C5E0644B654ADA63634B67
:103E900001225A73614B00221A71604B9B6B5A1CB2
:103EA0005E4B9A63B6E05D4BDB6B002B03D15B4B43
:103EB00000225A63AEE0594B5B7B002B00D0A4E09C
:103EC000564BDB781A00574B1A60574B00221A608A
:103ED000524B534ADA63514B01225A734F4B002223
:103EE0001A714E4B9B6B5A1C4C4B9A6392E04B4B96
:103EF000DB6B002B03D1494B00225A638AE0474B0E
:103F00005B7B002B00D082E0474B1B68434AD07894
:103F1000424A5821D3185B18021C1A70424B1B6886
:103F20005A1C414B1A60404B1A683E4B1B689A4220
:103F300003DA3A4B01225A7360E0384B00225A638D
:103F40003A4B180000F044FF03007B607B681800C8
:103F500011F0D2FD03003B607B68180000F051FFB8
:103F600003007B607B681B78202B52D17B68180094
:103F700000F02EFF03007B603B68002B4ADB3B68B0
:103F8000032B47DC2A4A294B1100180001F03AF8AC
:103F9000031E04D07B681800FDF7E8FF2EE07B6865
:103FA000180001F081FB031E28D03A6813001B01A2
:103FB0009B1A9B009B18DB001E4A9B1804337A68EF
:103FC0001100180012F0FCFC1A493A6813001B019A
:103FD0009B1A9B009B18DB005B58180001F08AFAC3
:103FE00014493A6813001B019B1A9B009B18DB00C5
:103FF00000225A503B681800FDF772FF074B084A31
:10400000DA63064B00221A7104E0C04602E0C046A3
:1040100000E0C046C046BD4602B080BD8020002002
:10402000A08601002871032018710320D8200020E9
:104030003C6F01105CA4022080B582B000AF6F4BD2
:104040009B6B022B39D000DDD3E0002B02D0012B7B
:104050000FD0CEE0694B6A4ADA63684B01225A738B
:10406000664B00221A71654B9B6B5A1C634B9A631B
:10407000BFE0624BDB6B002B03D1604B00225A6325
:10408000B7E05E4B5B7B002B00D0ADE05B4BDB7899
:104090001A005C4B1A605C4B00221A60574B584A5E
:1040A000DA63564B01225A73544B00221A71534B58
:1040B0009B6B5A1C514B9A639BE0504BDB6B002B64
:1040C00003D14E4B00225A6393E04C4B5B7B002B99
:1040D00000D08BE04C4B1B68484AD078474A5821A7
:1040E000D3185B18021C1A70474B1B685A1C464BAE
:1040F0001A60454B1A68434B1B689A4203DA3F4BE0
:1041000001225A7369E03D4B00225A633F4B3B60EA
:104110003D4B00221A60FB1D00221A7015E03B681F
:104120001B782F2B02D13B682E221A703B681B781C
:104130003A2B02D13B6800221A703B6801333B6086
:10414000314B1B685A1C304B1A603B681B78002BA4
:1041500009D03B681B782C2B05D02B4B1A68294BB8
:104160001B689A42DBDB3B681B782C2B40D13B68F9
:1041700000221A703B6801333B6017E03B681B78F4
:10418000722B06D1FB1DFA1D127801210A431A7009
:1041900009E03B681B78772B05D1FB1DFA1D1278CF
:1041A00002210A431A703B6801333B603B681B786D
:1041B000002BE3D1164B1B68002B04D0144B1B685B
:1041C000180001F097F9FB1D1A78104B1100180028
:1041D00001F038F902000E4B1A60084B084ADA6306
:1041E000064B00221A7104E0C04602E0C04600E01F
:1041F000C046C046BD4602B080BDC04680200020FB
:10420000102700002471032014710320D8200020FF
:1042100058B9022080B500AF3F4B9B6B022B38D0C2
:1042200000DD75E0002B02D0012B0FD070E03A4B7F
:104230003A4ADA63384B01225A73374B00221A711B
:10424000354B9B6B5A1C344B9A6361E0324BDB6BF2
:10425000002B03D1304B00225A6359E02E4B5B7B7D
:10426000002B52D12C4BDB781A002D4B1A602D4BB2
:1042700000221A60284B294ADA63274B01225A731D
:10428000254B00221A71244B9B6B5A1C224B9A63BC
:104290003EE0214BDB6B002B03D11F4B00225A6306
:1042A00036E01D4B5B7B002B31D11E4B1B681A4A3D
:1042B000D078194A5821D3185B18021C1A70194B70
:1042C0001B685A1C174B1A60164B1A68144B1B6854
:1042D0009A4203DA104B01225A730FE00E4B002270
:1042E0005A63114B1B68002B08D00F4B18680C4BFE
:1042F0001B681A000D4B190001F034F9064B074AF0
:10430000DA63054B00221A7102E0C04600E0C046A5
:10431000C046BD4680BDC04680200020102700005A
:10432000207103201071032058B90220D8200020EA
:1043300080B586B000AF404B9B6B022B38D000DDC0
:1043400075E0002B02D0012B0FD070E03A4B3B4AB6
:10435000DA63394B01225A73374B00221A71364BFC
:104360009B6B5A1C344B9A6361E0334BDB6B002B25
:1043700003D1314B00225A6359E02F4B5B7B002B5A
:1043800052D12D4BDB781A002D4B1A602D4B002299
:104390001A60294B294ADA63274B01225A73264BAC
:1043A00000221A71244B9B6B5A1C234B9A633EE0EC
:1043B000214BDB6B002B03D11F4B00225A6336E0ED
:1043C0001D4B5B7B002B31D11E4B1B681A4AD078EA
:1043D000194A5821D3185B18021C1A70194B1B6814
:1043E0005A1C184B1A60174B1A68154B1B689A42D7
:1043F00003DA114B01225A730FE03A00124B1100FD
:10440000180000F06FFB3B00180000F03BFC0200BE
:104410000E4B1A60084B00225A63074B074ADA63B7
:10442000054B00221A7102E0C04600E0C046C046BB
:10443000BD4606B080BDC046802000201027000089
:104440001C7103200C710320D8200020FCAB02203B
:1044500080B500AF084BDB6B002B09D1064B002267
:104460005A73054B00221A71034B00225A6300E075
:10447000C046BD4680BDC0468020002080B500AF4C
:10448000254B30229B5C002B03D0FDF70BFFFCF784
:1044900053FD00F0F7F9204B48229A5C1F4B1B7824
:1044A0009A420ED01C4B48229B5C002B02D0FDF799
:1044B000F9FE01E0FDF72CFE184B1978164B482247
:1044C0009954154BDB7B002B02D0FEF7B5FF21E0A2
:1044D000114B5B6B082B1DD89A00114BD3181B682E
:1044E0009F46FFF74BF815E0FFF700FA12E0FFF7E1
:1044F00013FC0FE0FFF7ACFF0CE0FFF7B7FC09E09F
:10450000FFF79AFD06E0FFF785FE03E0FFF710FFD7
:1045100000E0C046BD4680BD802000206E730320B1
:104520003070011080B500AF034B18000FF06CF82D
:10453000C046BD4680BDC046200D002080B500AFFE
:1045400002231800BD4680BD80B582B000AF786000
:10455000FFF7F4FF02007B68934209D87A681300E2
:104560009B009B18DB009B1A1B01044A9B1800E070
:1045700000231800BD4602B080BDC046580D002083
:1045800080B500AF01231800BD4680BD80B582B064
:1045900000AF7860FFF7D2FF02007B68934205D836
:1045A0007B6834225A43044BD31800E000231800E0
:1045B000BD4602B080BDC046200D002080B582B04F
:1045C00000AF7860D0231B065A687B68DA4013007E
:1045D000012213405A1E9341DBB21800BD4602B0BF
:1045E00080BD80B584B000AF78600023FB6016E02A
:1045F000FB681800FFF7A8FF03001B687A6811002A
:10460000180012F099F9031E06D1FB681800FFF795
:104610009BFF0300343309E0FB680133FB60FFF7C5
:104620008DFF0200FB689342E2D300231800BD46D1
:1046300004B080BD80B500AF1A20FFF7BFFF0300B4
:104640001A0001235340DBB2002B01D0012300E00C
:1046500000231800BD4680BD80B500AF00231800C0
:10466000BD4680BDF0B58DB000AF3D4BFB62FB6A2F
:104670001800FFF7B6FF0300BB61BB69002B01D137
:10468000012368E0132318229B18DE19BA181C2393
:10469000F918334B18000DF050FF0300337013234B
:1046A00018229B18DB191B78002B01D0012352E044
:1046B000BB69DB69023BBA69528953437B62BB69C0
:1046C0005B891A00FB6953433B627B6A3B610023B1
:1046D0007B61244B39697A6919605A603B6A1C0016
:1046E00000231D001F4B9C60DD601E49802292004C
:1046F00000230A614B611B4B18685968BB695B89D1
:10470000BB600023FB60BA68FB6807F0A5FB0200F2
:104710000B00144B9A61134B9868D968BB695B898D
:104720003B6000237B603A687B6807F095FB0200E2
:104730000B000C4BDA610B4B9A690A4BDB69D21AFE
:10474000084B1A62074B00225A62BB695B891A0048
:10475000044B9A6200231800BD460DB0F0BDC04660
:104760005C700110681C0020B0B53E4CA54400AF41
:104770003D4D7C19FFF75EFF030023703B4900228B
:1047800000230A604B603949002200238A60CB6015
:104790003649002200230A614B61344B00229A61A2
:1047A000324B0022DA61314B00221A622F4B002279
:1047B0005A622E4B00229A627B191B78002B41D043
:1047C0002B4B1B88042B36D8294B1B8801339AB2FC
:1047D000274B1A80274B00221A7010F0CBFC0300E5
:1047E0001A0001235340DBB2002B35D1224D7C1936
:1047F00022493B00012218000CF078FD03002370D1
:104800007B191B78002B12D1FFF72CFF03008E229F
:104810009200B9180B60BB181B68002B03D1154B15
:1048200001221A700AE0134B00221A7006E0114BA5
:1048300000221A7002E00F4B00221A70104B002267
:104840001A700AE00E4B01221A700A4B00221A70ED
:10485000074B00221A8000E0C046BD4690239B0013
:104860009D44B0BDC0FDFFFF3F020000681C00205A
:10487000607303206E7303203E0200005C70011021
:104880006F73032080B500AFFFF7D4FE03001A005A
:104890001B4B1A70FFF7E0FE03001A00194B1A7049
:1048A000174B1A78184B1B789A4218D0144B1B7868
:1048B000002B0DD0154B1A68154B1B689A421BD361
:1048C000144B01221A70144B00221A80FFF74CFF80
:1048D0000B4B1B78002B02D1104B00221A70094B96
:1048E0001A780F4B1B78064B1A78074B1A70054B3A
:1048F0001A780B4B1A7000E0C046BD4680BDC0461A
:104900007073032071730320727303201CAC0220A8
:1049100018AC02206F730320607303206E730320B2
:104920007373032080B500AF124B00221A70124B34
:1049300000221A70FFF77EFE03001A000F4B1A7058
:10494000FFF78AFE03001A000D4B1A700B4B1A7802
:104950000C4B1A700A4B1A780B4B1A700B4B002237
:104960001A800B4B0B4A1A60FFF7FEFEC046BD468D
:1049700080BDC0466F7303206E73032070730320E5
:104980007173032072730320737303206073032019
:1049900018AC022010270000F0B587B000AF786097
:1049A00039607B684C49180007F014FA03001A00BC
:1049B00014257B191A807B684749180007F00AFA0A
:1049C0000B003B613B69E1221101180007F002FA7C
:1049D00003001A003B689A603B69E122110118004C
:1049E00007F0F8F90B001A000E243B191A803B1946
:1049F0001B883C21180007F0EDF903009BB21A0058
:104A00003B685A603B191B883C21180007F0E2F90B
:104A10000B009BB21A003B681A600C26BC197B196C
:104A20001B882E49180007F0D5F9030023807C1954
:104A30007B191B882949180007F0CCF90B0023804B
:104A40007B191B886E22FF321100180007F0C2F993
:104A5000030099B2BB191B889B009AB20A26BB19A6
:104A60008A181A800823FC187B191B886E22FF32D3
:104A70001100180007F0AEF90B002380BB191A884B
:104A80003B685A611623FB180B221A8005E0162199
:104A90007B181A887B18013A1A8016217B181A880D
:104AA0000F4B5200D35A08203A1812889A42EED37C
:104AB0007B181A883B681A613B181B887A18118882
:104AC000074A49008A5A9B1A1A003B68DA60C046B6
:104AD000BD4607B0F0BDC04680510100B5050000DD
:104AE0006070011080B582B000AF786039607B687B
:104AF000180011F001F80300013B1A003B681A612D
:104B00003B680022DA603B6800225A613B68002261
:104B10009A603B6800225A603B6800221A6002E0FB
:104B20007B6801337B607B681B78002B03D07B683C
:104B30001B782F2BF4D17B681B782F2B00D091E0B2
:104B40007B6801337B607B68180010F0D5FF0300A1
:104B5000013B1A003B68DA6002E07B6801337B604E
:104B60007B681B78002B03D07B681B782F2BF4D13C
:104B70007B681B782F2B00D076E07B6801337B604D
:104B80007B68180010F0B8FF03001A003B685A61F8
:104B90003B685B694F2B06D93B685B69374A9A18BB
:104BA0003B685A6106E03B685B69FA22D2009A18BA
:104BB0003B685A613B685B69314A9A183B685A61A5
:104BC00002E07B6801337B607B681B78002B03D09D
:104BD0007B681B78202BF4D17B681B78202B45D178
:104BE0007B6801337B607B68180010F085FF030051
:104BF0001A003B689A6002E07B6801337B607B6847
:104C00001B78002B03D07B681B783A2BF4D17B6890
:104C10001B783A2B2CD17B6801337B607B681800B2
:104C200010F06AFF03001A003B685A6002E07B68DC
:104C300001337B607B681B78002B03D07B681B787B
:104C40003A2BF4D17B681B783A2B13D17B68013364
:104C50007B607B68180010F04FFF03001A003B6870
:104C60001A6008E0C04606E0C04604E0C04602E024
:104C7000C04600E0C046BD4602B080BD6C070000E3
:104C800044F8FFFF80B584B000AF78607B685A6954
:104C900013005B029B189B009B18DB009B181A01FA
:104CA000D21AD3011A00FA607B685B699A08130074
:104CB0005B009B181A01D21A13019B1ADB011A0020
:104CC000FB689B18FB607B685B690322134012D171
:104CD0007B681A69284B5200D35A1A0013005B00F4
:104CE0009B181A01D21A13019B1ADB011A00FB68E8
:104CF0009B18FB6011E07B681A69204B5200D35A65
:104D00001A0013005B009B181A01D21A13019B1A98
:104D1000DB011A00FB689B18FB607B68DA681300F4
:104D20005B009B181A01D21A13019B1ADB011A00AF
:104D3000FB689B18FB607B689A6813001B019B1A39
:104D40001A01D21A13011A00FB689B18FB607B68DA
:104D50005A6813001B019B1A9B001A00FB689B18E2
:104D6000FB607B681B68FA68D318FB60FB6818005F
:104D7000BD4604B080BDC04678700110607001105F
:104D800080B582B000AF786039607A683B689A423B
:104D900004D97A683B68D31A7B6001E000237B600A
:104DA0007B681800BD4602B080BD80B582B000AF00
:104DB000786039603B68DB437A689A4203D27A684C
:104DC0003B68D3187B607B681800BD4602B080BD8D
:104DD00080B582B000AF78607B68002B04D10023DF
:104DE0000BE07B6801337B607B681B78202B03D151
:104DF0007B681B78002BF4D17B681800BD4602B09D
:104E000080BD80B582B000AF78607B68002B04D194
:104E100000230BE07B6801337B607B681B78202BD1
:104E200003D07B681B78002BF4D17B681800BD464B
:104E300002B080BD80B586B000AFF860B9607A601E
:104E400000237B61FB681B785B2B26D1FB68013359
:104E5000FB6022E013217B18FA6812781A707B1825
:104E60001B785A1C164BD3181B781A0003231340C7
:104E7000022B03D17B181B78203B02E01323FB1885
:104E80001B78DAB2BB681A70BB680133BB60FB6881
:104E90000133FB607B6901337B617A697B689A42ED
:104EA00007DAFB681B785D2B03D0FB681B78002BAF
:104EB000D0D1BB6800221A70C046BD4606B080BD86
:104EC000089F011080B586B000AFF860B9607A60C5
:104ED00000237B6122E013217B18FA6812781A7094
:104EE0007B181B785A1C1B4BD3181B781A00032302
:104EF0001340022B03D17B181B78203B02E01323C5
:104F0000FB181B78DAB2BB681A70BB680133BB6050
:104F1000FB680133FB607B6901337B617A697B68E5
:104F20009A4207DAFB681B783D2B03D0FB681B789D
:104F3000002BD0D1BB6800221A70FB681B783D2B78
:104F400002D1FB680133FB60FB681800BD4606B068
:104F500080BDC046089F011080B586B000AFF860E4
:104F6000B9607A6000237B6114E0FB681B78002B3A
:104F700007D0FB681A78BB681A70FB680133FB60C6
:104F800002E0BB6800221A70BB680133BB607B691A
:104F900001337B617A697B689A42E6DBC046C04692
:104FA000BD4606B080BD000080B584B000AF78601B
:104FB0001CE00F217B187A6812781A707B181B7816
:104FC0005A1C0F4BD3181B781A0003231340022BD3
:104FD00003D17B181B78203B02E00F23FB181B78C2
:104FE000DAB27B681A707B6801337B607B681B7860
:104FF000002BDED1C046C046BD4604B080BDC046D1
:10500000089F011080B586B000AF786039607FE0FE
:105010000F217B187A6812781A707B181B785A1C3B
:10502000404BD3181B781A0003231340012B04D1E3
:105030007B181B7820331A0002E00F23FB181A7824
:105040000E203B183968097819703B181B78591CD9
:10505000344BCB181B78190003230B40012B03D1D1
:105060003B181B78203302E00E23FB181B789A4272
:105070004BD17B6801337B613B6801333B6105E0C9
:105080007B6901337B613B6901333B617B691B7841
:10509000002B34D03B691B78002B30D00D217B18BE
:1050A0007A6912781A707B181B785A1C1D4BD3181A
:1050B0001B781A0003231340012B04D17B181B78A3
:1050C00020331A0002E00D23FB181A780C203B183D
:1050D0003969097819703B181B78591C114BCB188A
:1050E0001B78190003230B40012B03D13B181B78BD
:1050F000203302E00C23FB181B789A42C0D03B6996
:105100001B78002B01D17B6808E07B6801337B6052
:105110007B681B78002B00D07AE700231800BD467F
:1051200006B080BD089F011080B584B000AF7860E4
:10513000396005E07B6801337B603B6801333B608D
:105140000F217B187A6812781A707B181B785A1C0A
:10515000594BD3181B781A0003231340012B04D199
:105160007B181B7820331A0002E00F23FB181A78F3
:105170000E203B183968097819703B181B78591CA8
:105180004D4BCB181B78190003230B40012B03D187
:105190003B181B78203302E00E23FB181B789A4241
:1051A00007D17B681B78002B03D03B681B78002B52
:1051B000C0D17B681B78002B05D13B681B78002B86
:1051C00001D1002374E07B681B78002B02D10123FE
:1051D0005B426DE03B681B78002B01D1012367E047
:1051E0000D217B187A6812781A707B181B785A1C6C
:1051F000314BD3181B781A0003231340012B04D121
:105200007B181B7820331A0002E00D23FB181A7854
:105210000C203B183968097819703B181B78591C09
:10522000254BCB181B78190003230B40012B03D10E
:105230003B181B78203302E00C23FB181B789A42A2
:1052400002DA01235B4233E00B217B187A68127883
:105250001A707B181B785A1C174BD3181B781A002E
:1052600003231340012B04D17B181B7820331A0031
:1052700002E00B23FB181A780A203B1839680978DA
:1052800019703B181B78591C0B4BCB181B78190055
:1052900003230B40012B03D13B181B78203302E082
:1052A0000A23FB181B789A4201DD012300E000234A
:1052B0001800BD4604B080BD089F011080B586B0BF
:1052C00000AFF860B9607A60FB68180011F080FBED
:1052D00003007B617B69FA68D318FB600CE07B6894
:1052E0001A78FB681A70FB680133FB607B68013336
:1052F0007B607B6901337B617A69BB689A4203DA20
:105300007B681B78002BEAD1FB6800221A70C0462C
:10531000BD4606B080BD000080B500AF124B134AF9
:105320001A60114B1A6813009B009B18B42251009D
:10533000180006F04FFD03001A000D4B1A600D4BCC
:10534000FA2292001A600C4B00221A70B0235A0005
:105350000A4B0021180007F09BFC084B01221A7130
:10536000C046BD4680BDC04614AC0220400D0300BF
:1053700004AC022010AC02206973032080200020BE
:1053800090B587B000AF786039601623FB18012212
:1053900052421A8000233B611EE016203B181B88F6
:1053A0001B0A99B23B697A68D3181B789AB20E240B
:1053B0003B194A401A803B181B881B021AB23B1942
:1053C00019880B4B4900CB5A1BB253401AB23B18F9
:1053D0001A803B6901333B613A693B689A42DCDBE6
:1053E0001623FB181B881800BD4607B090BDC046A9
:1053F0009070011090B583B000AFFC1C0E490F4BAC
:10540000002218000BF072FF0300237000237B6062
:1054100009E00B4B7A688D2189004A430021D15461
:105420007B6801337B607B68052BF2DDC046C0469C
:10543000BD4603B090BDC04690720110E02100202F
:1054400020AC0220B0B594B000AF78600A00FB1C1D
:105450001A70264B1B78002B01D1002342E0002359
:10546000FB6402E0FB6C0133FB64FB6C052B07DC87
:105470001F4BFA6C8D2189004A43D35C002BF1D17C
:10548000FB6C052B01DD00232CE07B68180011F07C
:105490009FFA03003D2B01D9002323E0FB6C8D22F2
:1054A00092005A43124BD318181D4B257C19FB1C34
:1054B0001A787B6819000BF063FF030023707B19D7
:1054C0001B78002B0DD10A4BFA6C8D2189004A43C1
:1054D0000121D154FB6C8D2292005A43044BD31806
:1054E00000E000231800BD4614B0B0BD6E73032069
:1054F00020AC022080B582B000AF78607B68002BC2
:105500000CD07B681B78002B08D07B680433180014
:105510000CF06EFC7B6800221A7000E0C046BD46AD
:1055200002B080BD90B587B000AFF860B9607A6016
:10553000FB68002B03D0FB681B78002B01D10023F4
:105540000CE0FB68181D1723FC181023FB187A6861
:10555000B9680CF009F9030023703B691800BD46D7
:1055600007B090BD90B587B000AFF860B9607A60C1
:10557000FB68002B01D100230CE0FB68181D1723EA
:10558000FC181023FB187A68B9680CF02EFA030097
:1055900023703B691800BD4607B090BD80B582B04E
:1055A00000AF786039607B68002B07D07B680433DC
:1055B0003A68110018000CF04FFC00E0C046BD46F0
:1055C00002B080BD80B582B000AF78607B680433E4
:1055D00018000CF084FBC046BD4602B080BD80B50B
:1055E00082B000AF78607B68043318000DF060F87B
:1055F000C046BD4602B080BD80B582B000AF7860C5
:105600007B68002B01D1012307E07B68DA697B68A6
:105610001B69D31A5A425341DBB21800BD4602B08F
:1056200080BD80B586B000AFF860B9607A600023B5
:105630007B61FB68002B05D0FB681800FFF7DCFFDF
:10564000031E02D001235B422AE0BB6800221A70CD
:10565000FB681A1D7968BB6818000DF0D8F8BB68A4
:105660000D21180011F008F903003B613B69002B84
:1056700002D03B6900221A70BB680A21180011F0A1
:10568000FBF803003B613B69002B02D03B69002221
:105690001A70BB68180011F09BF903007B617B69ED
:1056A0001800BD4606B080BDF0B5D9B000AF786037
:1056B00092256D007B1938220021180007F0E8FAC6
:1056C0008C235A000C26BB190021180007F0E0FAC1
:1056D0006023FF33FC18274B274AB91978190CF0BF
:1056E00004FF030023706023FF33FB181B78002B9B
:1056F0002DD000233AE0214BB02149005B18DB1983
:105700001B7A1A001023134013D11C4B5B18DB19B2
:105710001B7A1A00042313400BD17A680C23FB1860
:10572000163311001800FFF7FFFC031E01D10123FF
:105730001CE06023FF33FC180C23FA1892235B0053
:10574000FB18110018000CF0A2FE03002370602368
:10575000FF33FB181B78002B07D1084BB0225200F7
:105760009B18DB199B7D002BC5D100231800BD467B
:1057700059B0F0BD9472011098720110ACFEFFFF99
:1057800080B500AF024B9B6A1800BD4680BDC04685
:105790000040054080B500AF0E4B00221A600E4B52
:1057A00000221A600D4B00221A600D4B00221A6075
:1057B0000C4B00221A600C4B00221A600B4B00228B
:1057C0001A700B4B00221A7000F088FDC046BD46CF
:1057D00080BDC04608AC0220D8270320E82703205C
:1057E000DC270320FC2703202024022066730320EB
:1057F0006773032080B582B000AF786039603B6882
:10580000002B0FD07B68180011F0E2F803001A009B
:105810007B689A180D4B1000190003231A0007F03B
:105820003DFA0EE07B68180011F0D2F803001A0070
:105830007B689A18064B1000190003231A0007F022
:105840002DFAC046BD4602B080BDC0469C72011014
:10585000A072011090B5A3B000AF786039603B68CA
:10586000F02213400FD17B68180011F0B1F803004B
:105870001A007B689A18AA4B100019000D231A0011
:1058800007F00CFA47E13B68F0221340102B14D1CB
:10589000A44B5B781A00A34BDB78A3490824381982
:1058A00006F0C6F99F4B5A789E4BDA703A197B681E
:1058B0001100180010F0BAFF2DE13B68F0221340F0
:1058C000202B0FD17B68180011F082F803001A001A
:1058D0007B689A18954B1000190028231A0007F0CE
:1058E000DDF918E13B68F0221340302B0FD17B68C3
:1058F000180011F06DF803001A007B689A188C4BA1
:105900001000190021231A0007F0C8F903E13B68D1
:10591000F0221340402B0FD17B68180011F058F88B
:1059200003001A007B689A18824B100019002B2381
:105930001A0007F0B3F9EEE03B68F0221340502B59
:105940000FD17B68180011F043F803001A007B6840
:105950009A18794B1000190024231A0007F09EF9B9
:10596000D9E03B68F0221340602B0FD17B68180010
:1059700011F02EF803001A007B689A186F4B100084
:1059800019002C231A0007F089F9C4E03B68F022C3
:105990001340702B0FD17B68180011F019F8030029
:1059A0001A007B689A18664B1000190025231A000C
:1059B00007F074F9AFE03B68F0221340802B13D15D
:1059C000584B9B781A00574BDB785E4908243819EE
:1059D00006F02EF93A197B681100180010F026FF26
:1059E000594B00221A6096E03B68F0221340902B3E
:1059F0000FD17B68180010F0EBFF03001A007B68E2
:105A00009A18524B100019001B231A0007F046F990
:105A100081E03B68F0221340A02B10D1414B9B78D2
:105A20001A00404BDB784A490824381906F000F97F
:105A30003A197B681100180010F0F8FE6BE03B6823
:105A4000F0221340B02B0FD17B68180010F0C0FF7C
:105A500003001A007B689A183E4B100019001B23A4
:105A60001A0007F01BF956E03B68F0221340C02BE8
:105A70000FD17B68180010F0ABFF03001A007B68A1
:105A80009A18354B1000190012231A0007F006F976
:105A900041E03B68F0221340D02B13D12F4B1B6801
:105AA0005A1C2E4B1A602D4B1A682D4908243B199D
:105AB000180006F0BDF83A197B681100180010F0C4
:105AC000B5FE28E03B68F0221340E02B0FD1154BC8
:105AD000DB781A00234908243B19180006F0A8F8BF
